{
  "contractName": "Blood",
  "abi": [
    {
      "inputs": [],
      "stateMutability": "nonpayable",
      "type": "constructor"
    },
    {
      "inputs": [
        {
          "internalType": "address",
          "name": "donor",
          "type": "address"
        }
      ],
      "name": "get_membership",
      "outputs": [
        {
          "internalType": "uint256",
          "name": "x",
          "type": "uint256"
        }
      ],
      "stateMutability": "view",
      "type": "function",
      "constant": true
    },
    {
      "inputs": [
        {
          "internalType": "address",
          "name": "donor",
          "type": "address"
        },
        {
          "internalType": "uint256",
          "name": "age",
          "type": "uint256"
        },
        {
          "internalType": "uint256",
          "name": "bmi",
          "type": "uint256"
        },
        {
          "internalType": "bool",
          "name": "smoke",
          "type": "bool"
        },
        {
          "internalType": "bool",
          "name": "drink",
          "type": "bool"
        },
        {
          "internalType": "bool",
          "name": "healthrisks",
          "type": "bool"
        },
        {
          "internalType": "bool",
          "name": "tattoo",
          "type": "bool"
        },
        {
          "internalType": "string",
          "name": "bloodgr",
          "type": "string"
        }
      ],
      "name": "set_donor",
      "outputs": [],
      "stateMutability": "nonpayable",
      "type": "function"
    },
    {
      "inputs": [
        {
          "internalType": "address",
          "name": "donor",
          "type": "address"
        }
      ],
      "name": "donor_eligible",
      "outputs": [],
      "stateMutability": "nonpayable",
      "type": "function"
    },
    {
      "inputs": [
        {
          "internalType": "address",
          "name": "donor",
          "type": "address"
        },
        {
          "internalType": "uint256",
          "name": "value",
          "type": "uint256"
        }
      ],
      "name": "donate",
      "outputs": [],
      "stateMutability": "nonpayable",
      "type": "function"
    },
    {
      "inputs": [
        {
          "internalType": "address",
          "name": "recv",
          "type": "address"
        },
        {
          "internalType": "string",
          "name": "bloodgr",
          "type": "string"
        }
      ],
      "name": "set_receiver",
      "outputs": [],
      "stateMutability": "nonpayable",
      "type": "function"
    },
    {
      "inputs": [
        {
          "internalType": "string",
          "name": "blreq",
          "type": "string"
        }
      ],
      "name": "get_reqblooddetails",
      "outputs": [
        {
          "internalType": "uint256",
          "name": "x",
          "type": "uint256"
        }
      ],
      "stateMutability": "view",
      "type": "function",
      "constant": true
    },
    {
      "inputs": [
        {
          "internalType": "address",
          "name": "recv",
          "type": "address"
        }
      ],
      "name": "get_recvBlood",
      "outputs": [
        {
          "internalType": "string",
          "name": "",
          "type": "string"
        }
      ],
      "stateMutability": "view",
      "type": "function",
      "constant": true
    },
    {
      "inputs": [
        {
          "internalType": "address",
          "name": "recv",
          "type": "address"
        },
        {
          "internalType": "uint256",
          "name": "value",
          "type": "uint256"
        }
      ],
      "name": "rec",
      "outputs": [],
      "stateMutability": "nonpayable",
      "type": "function"
    }
  ],
  "bytecode": "0x608060405234801561001057600080fd5b50336000806101000a81548173ffffffffffffffffffffffffffffffffffffffff021916908373ffffffffffffffffffffffffffffffffffffffff16021790555060018060003373ffffffffffffffffffffffffffffffffffffffff1673ffffffffffffffffffffffffffffffffffffffff168152602001908152602001600020819055506001600260003373ffffffffffffffffffffffffffffffffffffffff1673ffffffffffffffffffffffffffffffffffffffff168152602001908152602001600020819055506000600560008060009054906101000a900473ffffffffffffffffffffffffffffffffffffffff1673ffffffffffffffffffffffffffffffffffffffff1673ffffffffffffffffffffffffffffffffffffffff168152602001908152602001600020600001819055506000600560008060009054906101000a900473ffffffffffffffffffffffffffffffffffffffff1673ffffffffffffffffffffffffffffffffffffffff1673ffffffffffffffffffffffffffffffffffffffff168152602001908152602001600020600101819055506000600560008060009054906101000a900473ffffffffffffffffffffffffffffffffffffffff1673ffffffffffffffffffffffffffffffffffffffff1673ffffffffffffffffffffffffffffffffffffffff168152602001908152602001600020600201819055506000600560008060009054906101000a900473ffffffffffffffffffffffffffffffffffffffff1673ffffffffffffffffffffffffffffffffffffffff1673ffffffffffffffffffffffffffffffffffffffff168152602001908152602001600020600301819055506000600560008060009054906101000a900473ffffffffffffffffffffffffffffffffffffffff1673ffffffffffffffffffffffffffffffffffffffff1673ffffffffffffffffffffffffffffffffffffffff168152602001908152602001600020600401819055506000600560008060009054906101000a900473ffffffffffffffffffffffffffffffffffffffff1673ffffffffffffffffffffffffffffffffffffffff1673ffffffffffffffffffffffffffffffffffffffff168152602001908152602001600020600501819055506000600560008060009054906101000a900473ffffffffffffffffffffffffffffffffffffffff1673ffffffffffffffffffffffffffffffffffffffff1673ffffffffffffffffffffffffffffffffffffffff168152602001908152602001600020600601819055506000600560008060009054906101000a900473ffffffffffffffffffffffffffffffffffffffff1673ffffffffffffffffffffffffffffffffffffffff1673ffffffffffffffffffffffffffffffffffffffff16815260200190815260200160002060070181905550612b6f806104316000396000f3fe608060405234801561001057600080fd5b50600436106100885760003560e01c806397bacabd1161005b57806397bacabd14610111578063e3d7e07514610141578063e69d849d1461015d578063fb82eeb31461017957610088565b80633182c6b61461008d57806332a95a22146100a957806345d19ad5146100d95780638f1f68e9146100f5575b600080fd5b6100a760048036038101906100a291906120bc565b6101a9565b005b6100c360048036038101906100be919061218e565b6103f9565b6040516100d091906121e6565b60405180910390f35b6100f360048036038101906100ee9190612201565b6109e1565b005b61010f600480360381019061010a919061222e565b610d13565b005b61012b60048036038101906101269190612201565b6114f1565b60405161013891906122ed565b60405180910390f35b61015b6004803603810190610156919061230f565b6115c5565b005b6101776004803603810190610172919061222e565b61165e565b005b610193600480360381019061018e9190612201565b611e3b565b6040516101a091906121e6565b60405180910390f35b86600360008a73ffffffffffffffffffffffffffffffffffffffff1673ffffffffffffffffffffffffffffffffffffffff1681526020019081526020016000206000018190555085600360008a73ffffffffffffffffffffffffffffffffffffffff1673ffffffffffffffffffffffffffffffffffffffff1681526020019081526020016000206001018190555084600360008a73ffffffffffffffffffffffffffffffffffffffff1673ffffffffffffffffffffffffffffffffffffffff16815260200190815260200160002060020160006101000a81548160ff02191690831515021790555083600360008a73ffffffffffffffffffffffffffffffffffffffff1673ffffffffffffffffffffffffffffffffffffffff16815260200190815260200160002060020160016101000a81548160ff02191690831515021790555082600360008a73ffffffffffffffffffffffffffffffffffffffff1673ffffffffffffffffffffffffffffffffffffffff16815260200190815260200160002060020160026101000a81548160ff02191690831515021790555081600360008a73ffffffffffffffffffffffffffffffffffffffff1673ffffffffffffffffffffffffffffffffffffffff16815260200190815260200160002060020160036101000a81548160ff02191690831515021790555080600360008a73ffffffffffffffffffffffffffffffffffffffff1673ffffffffffffffffffffffffffffffffffffffff16815260200190815260200160002060030190816103ee9190612577565b505050505050505050565b600060405160200161040a906126a0565b604051602081830303815290604052805190602001208260405160200161043191906126e6565b60405160208183030381529060405280519060200120036104b757600560008060009054906101000a900473ffffffffffffffffffffffffffffffffffffffff1673ffffffffffffffffffffffffffffffffffffffff1673ffffffffffffffffffffffffffffffffffffffff1681526020019081526020016000206000015490506109dc565b6040516020016104c690612749565b60405160208183030381529060405280519060200120826040516020016104ed91906126e6565b604051602081830303815290604052805190602001200361057357600560008060009054906101000a900473ffffffffffffffffffffffffffffffffffffffff1673ffffffffffffffffffffffffffffffffffffffff1673ffffffffffffffffffffffffffffffffffffffff1681526020019081526020016000206001015490506109dc565b604051602001610582906127aa565b60405160208183030381529060405280519060200120826040516020016105a991906126e6565b604051602081830303815290604052805190602001200361062f57600560008060009054906101000a900473ffffffffffffffffffffffffffffffffffffffff1673ffffffffffffffffffffffffffffffffffffffff1673ffffffffffffffffffffffffffffffffffffffff1681526020019081526020016000206002015490506109dc565b60405160200161063e9061280b565b604051602081830303815290604052805190602001208260405160200161066591906126e6565b60405160208183030381529060405280519060200120036106eb57600560008060009054906101000a900473ffffffffffffffffffffffffffffffffffffffff1673ffffffffffffffffffffffffffffffffffffffff1673ffffffffffffffffffffffffffffffffffffffff1681526020019081526020016000206003015490506109dc565b6040516020016106fa9061286c565b604051602081830303815290604052805190602001208260405160200161072191906126e6565b60405160208183030381529060405280519060200120036107a757600560008060009054906101000a900473ffffffffffffffffffffffffffffffffffffffff1673ffffffffffffffffffffffffffffffffffffffff1673ffffffffffffffffffffffffffffffffffffffff1681526020019081526020016000206004015490506109dc565b6040516020016107b6906128cd565b60405160208183030381529060405280519060200120826040516020016107dd91906126e6565b604051602081830303815290604052805190602001200361086357600560008060009054906101000a900473ffffffffffffffffffffffffffffffffffffffff1673ffffffffffffffffffffffffffffffffffffffff1673ffffffffffffffffffffffffffffffffffffffff1681526020019081526020016000206005015490506109dc565b6040516020016108729061292e565b604051602081830303815290604052805190602001208260405160200161089991906126e6565b604051602081830303815290604052805190602001200361091f57600560008060009054906101000a900473ffffffffffffffffffffffffffffffffffffffff1673ffffffffffffffffffffffffffffffffffffffff1673ffffffffffffffffffffffffffffffffffffffff1681526020019081526020016000206006015490506109dc565b60405160200161092e9061298f565b604051602081830303815290604052805190602001208260405160200161095591906126e6565b60405160208183030381529060405280519060200120036109db57600560008060009054906101000a900473ffffffffffffffffffffffffffffffffffffffff1673ffffffffffffffffffffffffffffffffffffffff1673ffffffffffffffffffffffffffffffffffffffff1681526020019081526020016000206007015490506109dc565b5b919050565b6012600360008373ffffffffffffffffffffffffffffffffffffffff1673ffffffffffffffffffffffffffffffffffffffff1681526020019081526020016000206000015410158015610ac657506012600360008373ffffffffffffffffffffffffffffffffffffffff1673ffffffffffffffffffffffffffffffffffffffff1681526020019081526020016000206001015410158015610ac557506018600360008373ffffffffffffffffffffffffffffffffffffffff1673ffffffffffffffffffffffffffffffffffffffff1681526020019081526020016000206001015411155b5b8015610b25575060001515600360008373ffffffffffffffffffffffffffffffffffffffff1673ffffffffffffffffffffffffffffffffffffffff16815260200190815260200160002060020160009054906101000a900460ff161515145b8015610b84575060001515600360008373ffffffffffffffffffffffffffffffffffffffff1673ffffffffffffffffffffffffffffffffffffffff16815260200190815260200160002060020160019054906101000a900460ff161515145b8015610be3575060001515600360008373ffffffffffffffffffffffffffffffffffffffff1673ffffffffffffffffffffffffffffffffffffffff16815260200190815260200160002060020160039054906101000a900460ff161515145b8015610c42575060001515600360008373ffffffffffffffffffffffffffffffffffffffff1673ffffffffffffffffffffffffffffffffffffffff16815260200190815260200160002060020160029054906101000a900460ff161515145b15610c905760018060008373ffffffffffffffffffffffffffffffffffffffff1673ffffffffffffffffffffffffffffffffffffffff16815260200190815260200160002081905550610d10565b6000600160008373ffffffffffffffffffffffffffffffffffffffff1673ffffffffffffffffffffffffffffffffffffffff168152602001908152602001600020819055506040517f08c379a0000000000000000000000000000000000000000000000000000000008152600401610d0790612a16565b60405180910390fd5b50565b6001600260003373ffffffffffffffffffffffffffffffffffffffff1673ffffffffffffffffffffffffffffffffffffffff16815260200190815260200160002054036114b2576000600460008473ffffffffffffffffffffffffffffffffffffffff1673ffffffffffffffffffffffffffffffffffffffff1681526020019081526020016000206000018054610da99061239a565b80601f0160208091040260200160405190810160405280929190818152602001828054610dd59061239a565b8015610e225780601f10610df757610100808354040283529160200191610e22565b820191906000526020600020905b815481529060010190602001808311610e0557829003601f168201915b50505050509050604051602001610e38906126a0565b6040516020818303038152906040528051906020012081604051602001610e5f91906126e6565b6040516020818303038152906040528051906020012003610ef95781600560008060009054906101000a900473ffffffffffffffffffffffffffffffffffffffff1673ffffffffffffffffffffffffffffffffffffffff1673ffffffffffffffffffffffffffffffffffffffff1681526020019081526020016000206000016000828254610eed9190612a65565b925050819055506114ac565b604051602001610f0890612749565b6040516020818303038152906040528051906020012081604051602001610f2f91906126e6565b6040516020818303038152906040528051906020012003610fc95781600560008060009054906101000a900473ffffffffffffffffffffffffffffffffffffffff1673ffffffffffffffffffffffffffffffffffffffff1673ffffffffffffffffffffffffffffffffffffffff1681526020019081526020016000206001016000828254610fbd9190612a65565b925050819055506114ab565b604051602001610fd8906127aa565b6040516020818303038152906040528051906020012081604051602001610fff91906126e6565b60405160208183030381529060405280519060200120036110995781600560008060009054906101000a900473ffffffffffffffffffffffffffffffffffffffff1673ffffffffffffffffffffffffffffffffffffffff1673ffffffffffffffffffffffffffffffffffffffff168152602001908152602001600020600201600082825461108d9190612a65565b925050819055506114aa565b6040516020016110a89061280b565b60405160208183030381529060405280519060200120816040516020016110cf91906126e6565b60405160208183030381529060405280519060200120036111695781600560008060009054906101000a900473ffffffffffffffffffffffffffffffffffffffff1673ffffffffffffffffffffffffffffffffffffffff1673ffffffffffffffffffffffffffffffffffffffff168152602001908152602001600020600301600082825461115d9190612a65565b925050819055506114a9565b6040516020016111789061286c565b604051602081830303815290604052805190602001208160405160200161119f91906126e6565b60405160208183030381529060405280519060200120036112395781600560008060009054906101000a900473ffffffffffffffffffffffffffffffffffffffff1673ffffffffffffffffffffffffffffffffffffffff1673ffffffffffffffffffffffffffffffffffffffff168152602001908152602001600020600401600082825461122d9190612a65565b925050819055506114a8565b604051602001611248906128cd565b604051602081830303815290604052805190602001208160405160200161126f91906126e6565b60405160208183030381529060405280519060200120036113095781600560008060009054906101000a900473ffffffffffffffffffffffffffffffffffffffff1673ffffffffffffffffffffffffffffffffffffffff1673ffffffffffffffffffffffffffffffffffffffff16815260200190815260200160002060050160008282546112fd9190612a65565b925050819055506114a7565b6040516020016113189061292e565b604051602081830303815290604052805190602001208160405160200161133f91906126e6565b60405160208183030381529060405280519060200120036113d95781600560008060009054906101000a900473ffffffffffffffffffffffffffffffffffffffff1673ffffffffffffffffffffffffffffffffffffffff1673ffffffffffffffffffffffffffffffffffffffff16815260200190815260200160002060060160008282546113cd9190612a65565b925050819055506114a6565b6040516020016113e89061298f565b604051602081830303815290604052805190602001208160405160200161140f91906126e6565b60405160208183030381529060405280519060200120036114a55781600560008060009054906101000a900473ffffffffffffffffffffffffffffffffffffffff1673ffffffffffffffffffffffffffffffffffffffff1673ffffffffffffffffffffffffffffffffffffffff168152602001908152602001600020600701600082825461149d9190612a65565b925050819055505b5b5b5b5b5b5b5b506114ed565b6040517f08c379a00000000000000000000000000000000000000000000000000000000081526004016114e490612ae5565b60405180910390fd5b5050565b6060600460008373ffffffffffffffffffffffffffffffffffffffff1673ffffffffffffffffffffffffffffffffffffffff16815260200190815260200160002060000180546115409061239a565b80601f016020809104026020016040519081016040528092919081815260200182805461156c9061239a565b80156115b95780601f1061158e576101008083540402835291602001916115b9565b820191906000526020600020905b81548152906001019060200180831161159c57829003601f168201915b50505050509050919050565b80600460008473ffffffffffffffffffffffffffffffffffffffff1673ffffffffffffffffffffffffffffffffffffffff16815260200190815260200160002060000190816116149190612577565b506001600260008473ffffffffffffffffffffffffffffffffffffffff1673ffffffffffffffffffffffffffffffffffffffff168152602001908152602001600020819055505050565b60018060003373ffffffffffffffffffffffffffffffffffffffff1673ffffffffffffffffffffffffffffffffffffffff1681526020019081526020016000205403611dfc576000600360008473ffffffffffffffffffffffffffffffffffffffff1673ffffffffffffffffffffffffffffffffffffffff16815260200190815260200160002060030180546116f39061239a565b80601f016020809104026020016040519081016040528092919081815260200182805461171f9061239a565b801561176c5780601f106117415761010080835404028352916020019161176c565b820191906000526020600020905b81548152906001019060200180831161174f57829003601f168201915b50505050509050604051602001611782906126a0565b60405160208183030381529060405280519060200120816040516020016117a991906126e6565b60405160208183030381529060405280519060200120036118435781600560008060009054906101000a900473ffffffffffffffffffffffffffffffffffffffff1673ffffffffffffffffffffffffffffffffffffffff1673ffffffffffffffffffffffffffffffffffffffff16815260200190815260200160002060000160008282546118379190612b05565b92505081905550611df6565b60405160200161185290612749565b604051602081830303815290604052805190602001208160405160200161187991906126e6565b60405160208183030381529060405280519060200120036119135781600560008060009054906101000a900473ffffffffffffffffffffffffffffffffffffffff1673ffffffffffffffffffffffffffffffffffffffff1673ffffffffffffffffffffffffffffffffffffffff16815260200190815260200160002060010160008282546119079190612b05565b92505081905550611df5565b604051602001611922906127aa565b604051602081830303815290604052805190602001208160405160200161194991906126e6565b60405160208183030381529060405280519060200120036119e35781600560008060009054906101000a900473ffffffffffffffffffffffffffffffffffffffff1673ffffffffffffffffffffffffffffffffffffffff1673ffffffffffffffffffffffffffffffffffffffff16815260200190815260200160002060020160008282546119d79190612b05565b92505081905550611df4565b6040516020016119f29061280b565b6040516020818303038152906040528051906020012081604051602001611a1991906126e6565b6040516020818303038152906040528051906020012003611ab35781600560008060009054906101000a900473ffffffffffffffffffffffffffffffffffffffff1673ffffffffffffffffffffffffffffffffffffffff1673ffffffffffffffffffffffffffffffffffffffff1681526020019081526020016000206003016000828254611aa79190612b05565b92505081905550611df3565b604051602001611ac29061286c565b6040516020818303038152906040528051906020012081604051602001611ae991906126e6565b6040516020818303038152906040528051906020012003611b835781600560008060009054906101000a900473ffffffffffffffffffffffffffffffffffffffff1673ffffffffffffffffffffffffffffffffffffffff1673ffffffffffffffffffffffffffffffffffffffff1681526020019081526020016000206004016000828254611b779190612b05565b92505081905550611df2565b604051602001611b92906128cd565b6040516020818303038152906040528051906020012081604051602001611bb991906126e6565b6040516020818303038152906040528051906020012003611c535781600560008060009054906101000a900473ffffffffffffffffffffffffffffffffffffffff1673ffffffffffffffffffffffffffffffffffffffff1673ffffffffffffffffffffffffffffffffffffffff1681526020019081526020016000206005016000828254611c479190612b05565b92505081905550611df1565b604051602001611c629061292e565b6040516020818303038152906040528051906020012081604051602001611c8991906126e6565b6040516020818303038152906040528051906020012003611d235781600560008060009054906101000a900473ffffffffffffffffffffffffffffffffffffffff1673ffffffffffffffffffffffffffffffffffffffff1673ffffffffffffffffffffffffffffffffffffffff1681526020019081526020016000206006016000828254611d179190612b05565b92505081905550611df0565b604051602001611d329061298f565b6040516020818303038152906040528051906020012081604051602001611d5991906126e6565b6040516020818303038152906040528051906020012003611def5781600560008060009054906101000a900473ffffffffffffffffffffffffffffffffffffffff1673ffffffffffffffffffffffffffffffffffffffff1673ffffffffffffffffffffffffffffffffffffffff1681526020019081526020016000206007016000828254611de79190612b05565b925050819055505b5b5b5b5b5b5b5b50611e37565b6040517f08c379a0000000000000000000000000000000000000000000000000000000008152600401611e2e90612ae5565b60405180910390fd5b5050565b600060018060008473ffffffffffffffffffffffffffffffffffffffff1673ffffffffffffffffffffffffffffffffffffffff1681526020019081526020016000205403611e8c5760019050611e91565b600090505b919050565b6000604051905090565b600080fd5b600080fd5b600073ffffffffffffffffffffffffffffffffffffffff82169050919050565b6000611ed582611eaa565b9050919050565b611ee581611eca565b8114611ef057600080fd5b50565b600081359050611f0281611edc565b92915050565b6000819050919050565b611f1b81611f08565b8114611f2657600080fd5b50565b600081359050611f3881611f12565b92915050565b60008115159050919050565b611f5381611f3e565b8114611f5e57600080fd5b50565b600081359050611f7081611f4a565b92915050565b600080fd5b600080fd5b6000601f19601f8301169050919050565b7f4e487b7100000000000000000000000000000000000000000000000000000000600052604160045260246000fd5b611fc982611f80565b810181811067ffffffffffffffff82111715611fe857611fe7611f91565b5b80604052505050565b6000611ffb611e96565b90506120078282611fc0565b919050565b600067ffffffffffffffff82111561202757612026611f91565b5b61203082611f80565b9050602081019050919050565b82818337600083830152505050565b600061205f61205a8461200c565b611ff1565b90508281526020810184848401111561207b5761207a611f7b565b5b61208684828561203d565b509392505050565b600082601f8301126120a3576120a2611f76565b5b81356120b384826020860161204c565b91505092915050565b600080600080600080600080610100898b0312156120dd576120dc611ea0565b5b60006120eb8b828c01611ef3565b98505060206120fc8b828c01611f29565b975050604061210d8b828c01611f29565b965050606061211e8b828c01611f61565b955050608061212f8b828c01611f61565b94505060a06121408b828c01611f61565b93505060c06121518b828c01611f61565b92505060e089013567ffffffffffffffff81111561217257612171611ea5565b5b61217e8b828c0161208e565b9150509295985092959890939650565b6000602082840312156121a4576121a3611ea0565b5b600082013567ffffffffffffffff8111156121c2576121c1611ea5565b5b6121ce8482850161208e565b91505092915050565b6121e081611f08565b82525050565b60006020820190506121fb60008301846121d7565b92915050565b60006020828403121561221757612216611ea0565b5b600061222584828501611ef3565b91505092915050565b6000806040838503121561224557612244611ea0565b5b600061225385828601611ef3565b925050602061226485828601611f29565b9150509250929050565b600081519050919050565b600082825260208201905092915050565b60005b838110156122a857808201518184015260208101905061228d565b60008484015250505050565b60006122bf8261226e565b6122c98185612279565b93506122d981856020860161228a565b6122e281611f80565b840191505092915050565b6000602082019050818103600083015261230781846122b4565b905092915050565b6000806040838503121561232657612325611ea0565b5b600061233485828601611ef3565b925050602083013567ffffffffffffffff81111561235557612354611ea5565b5b6123618582860161208e565b9150509250929050565b7f4e487b7100000000000000000000000000000000000000000000000000000000600052602260045260246000fd5b600060028204905060018216806123b257607f821691505b6020821081036123c5576123c461236b565b5b50919050565b60008190508160005260206000209050919050565b60006020601f8301049050919050565b600082821b905092915050565b60006008830261242d7fffffffffffffffffffffffffffffffffffffffffffffffffffffffffffffffff826123f0565b61243786836123f0565b95508019841693508086168417925050509392505050565b6000819050919050565b600061247461246f61246a84611f08565b61244f565b611f08565b9050919050565b6000819050919050565b61248e83612459565b6124a261249a8261247b565b8484546123fd565b825550505050565b600090565b6124b76124aa565b6124c2818484612485565b505050565b5b818110156124e6576124db6000826124af565b6001810190506124c8565b5050565b601f82111561252b576124fc816123cb565b612505846123e0565b81016020851015612514578190505b612528612520856123e0565b8301826124c7565b50505b505050565b600082821c905092915050565b600061254e60001984600802612530565b1980831691505092915050565b6000612567838361253d565b9150826002028217905092915050565b6125808261226e565b67ffffffffffffffff81111561259957612598611f91565b5b6125a3825461239a565b6125ae8282856124ea565b600060209050601f8311600181146125e157600084156125cf578287015190505b6125d9858261255b565b865550612641565b601f1984166125ef866123cb565b60005b82811015612617578489015182556001820191506020850194506020810190506125f2565b868310156126345784890151612630601f89168261253d565b8355505b6001600288020188555050505b505050505050565b600081905092915050565b7f412b000000000000000000000000000000000000000000000000000000000000600082015250565b600061268a600283612649565b915061269582612654565b600282019050919050565b60006126ab8261267d565b9150819050919050565b60006126c08261226e565b6126ca8185612649565b93506126da81856020860161228a565b80840191505092915050565b60006126f282846126b5565b915081905092915050565b7f412d000000000000000000000000000000000000000000000000000000000000600082015250565b6000612733600283612649565b915061273e826126fd565b600282019050919050565b600061275482612726565b9150819050919050565b7f422b000000000000000000000000000000000000000000000000000000000000600082015250565b6000612794600283612649565b915061279f8261275e565b600282019050919050565b60006127b582612787565b9150819050919050565b7f422d000000000000000000000000000000000000000000000000000000000000600082015250565b60006127f5600283612649565b9150612800826127bf565b600282019050919050565b6000612816826127e8565b9150819050919050565b7f41422b0000000000000000000000000000000000000000000000000000000000600082015250565b6000612856600383612649565b915061286182612820565b600382019050919050565b600061287782612849565b9150819050919050565b7f41422d0000000000000000000000000000000000000000000000000000000000600082015250565b60006128b7600383612649565b91506128c282612881565b600382019050919050565b60006128d8826128aa565b9150819050919050565b7f4f2b000000000000000000000000000000000000000000000000000000000000600082015250565b6000612918600283612649565b9150612923826128e2565b600282019050919050565b60006129398261290b565b9150819050919050565b7f4f2d000000000000000000000000000000000000000000000000000000000000600082015250565b6000612979600283612649565b915061298482612943565b600282019050919050565b600061299a8261296c565b9150819050919050565b7f43616e742067697665206d656d626572736869702e20596f75206469646e742060008201527f7361746973667920726571756972656d656e7473000000000000000000000000602082015250565b6000612a00603483612279565b9150612a0b826129a4565b604082019050919050565b60006020820190508181036000830152612a2f816129f3565b9050919050565b7f4e487b7100000000000000000000000000000000000000000000000000000000600052601160045260246000fd5b6000612a7082611f08565b9150612a7b83611f08565b9250828203905081811115612a9357612a92612a36565b5b92915050565b7f596f7520646f6e742068617665206d656d626572736869700000000000000000600082015250565b6000612acf601883612279565b9150612ada82612a99565b602082019050919050565b60006020820190508181036000830152612afe81612ac2565b9050919050565b6000612b1082611f08565b9150612b1b83611f08565b9250828201905080821115612b3357612b32612a36565b5b9291505056fea2646970667358221220ee7a422f3121949dd48ab88806e7d631d99dffc8fa50ab38c381a3cfd05e4e5964736f6c63430008110033",
  "immutableReferences": {},
  "source": "//SPDX-License-Identifier: UNLICENSED\npragma solidity ^0.8;\n\n//phase-1 only data\ncontract Blood{\n//blood groups must be added how? string array  or struct\n    struct BloodGroups\n    {\n        uint apos;\n        uint aneg;\n        uint bpos;\n        uint bneg;\n        uint abpos;\n        uint abneg;\n        uint opos;\n        uint oneg;\n    }\n    struct Donor{\n        uint age;\n        uint bmi;\n        bool smoke;\n        bool drink;\n        bool healthrisks;\n        bool tattoo;\n        string bloodgrp;\n    }\n    struct Receiver\n    {\n        string bloodgrp;\n    }\n    \n    address testingcentre;\n    mapping(address=>uint) donormembership;\n    mapping(address=>uint) receivermembership;\n    mapping(address => Donor) Donors;\n    mapping(address => Receiver) Receivers;\n    mapping(address => BloodGroups) BloodBank;\n   \n\n    // creating testing centre and registering him\n\n    constructor() {\n        testingcentre=msg.sender;\n        donormembership[msg.sender]=1;\n        receivermembership[msg.sender]=1;\n        BloodBank[testingcentre].apos=0;\n        BloodBank[testingcentre].aneg=0;\n        BloodBank[testingcentre].bpos=0;\n        BloodBank[testingcentre].bneg=0;\n        BloodBank[testingcentre].abpos=0;\n        BloodBank[testingcentre].abneg=0;\n        BloodBank[testingcentre].opos=0;\n        BloodBank[testingcentre].oneg=0;\n    }\n    //writing functions\n\n/*---------------------------------------------DONOR-Functions------------------------------------------------------------*/\n    \n    //1. check membership\n    function get_membership(address donor) public view returns(uint x)\n    {\n        if(donormembership[donor]==1)\n        {\n            return 1;\n        }\n        else\n        {\n            return 0;\n        }\n    }\n    //2.get donor details.\n    function set_donor(address donor,uint age, uint bmi, bool smoke, bool drink,bool healthrisks,bool tattoo, string memory bloodgr) public\n    {\n        Donors[donor].age=age;\n        Donors[donor].bmi=bmi;\n        Donors[donor].smoke=smoke;\n        Donors[donor].drink=drink;\n        Donors[donor].healthrisks=healthrisks;\n        Donors[donor].tattoo=tattoo;\n        Donors[donor].bloodgrp=bloodgr;\n        //donor_eligible(donor);\n    }\n    \n    //3. Register the donor.\n    function donor_eligible(address donor) public \n    {\n        //checking if the ones adding is not testing centre and already eligible to donate\n        if(Donors[donor].age >=18 && (Donors[donor].bmi>=18 && Donors[donor].bmi<=24) && Donors[donor].smoke==false && Donors[donor].drink==false && Donors[donor].tattoo==false &&  Donors[donor].healthrisks==false){\n            donormembership[donor]=1;\n        }\n        else{\n            //we cant add him\n            donormembership[donor]=0;\n            revert(\"Cant give membership. You didnt satisfy requirements\");\n        }  \n    }\n    \n    \n    //4. Donate\n    function donate(address donor, uint value) public \n    {\n        if(donormembership[msg.sender]==1)\n        {\n            string memory bloodcall=Donors[donor].bloodgrp;\n            if(keccak256(abi.encodePacked((bloodcall))) == keccak256(abi.encodePacked((\"A+\"))))\n            {\n            BloodBank[testingcentre].apos+=value;\n            }\n            else if(keccak256(abi.encodePacked((bloodcall))) == keccak256(abi.encodePacked((\"A-\"))))\n            {\n                BloodBank[testingcentre].aneg+=value;\n            }\n            else if(keccak256(abi.encodePacked((bloodcall))) == keccak256(abi.encodePacked((\"B+\"))))\n            {\n                BloodBank[testingcentre].bpos+=value;\n            }\n            else if(keccak256(abi.encodePacked((bloodcall))) == keccak256(abi.encodePacked((\"B-\"))))\n            {\n                BloodBank[testingcentre].bneg+=value;\n            }\n            else if(keccak256(abi.encodePacked((bloodcall))) == keccak256(abi.encodePacked((\"AB+\"))))\n            {\n                BloodBank[testingcentre].abpos+=value;\n            }\n            else if(keccak256(abi.encodePacked((bloodcall))) == keccak256(abi.encodePacked((\"AB-\"))))\n            {\n                BloodBank[testingcentre].abneg+=value;\n            }\n            else if(keccak256(abi.encodePacked((bloodcall))) == keccak256(abi.encodePacked((\"O+\"))))\n            {\n                BloodBank[testingcentre].opos+=value;   \n            }\n            else if(keccak256(abi.encodePacked((bloodcall))) == keccak256(abi.encodePacked((\"O-\"))))\n            {\n                BloodBank[testingcentre].oneg+=value;\n            }\n        }\n        else\n        {\n            revert(\"You dont have membership\");\n        }\n    }\n\n/*-----------------------------------------------RECEIVER-Functions--------------------------------------------------------*/\n\n//1. set receiever details\nfunction set_receiver(address recv, string memory bloodgr) public\n{\n    Receivers[recv].bloodgrp=bloodgr;\n    //set the membership\n    receivermembership[recv]=1;\n    //get_reqblooddetails(Receivers[recv].bloodgrp);\n}\n\n// To get req blood group blood details in the blood bank.\nfunction get_reqblooddetails(string memory blreq) public view returns(uint x)\n{\n        if(keccak256(abi.encodePacked((blreq))) == keccak256(abi.encodePacked((\"A+\")))){\n            return BloodBank[testingcentre].apos;\n        }\n        else if(keccak256(abi.encodePacked((blreq))) == keccak256(abi.encodePacked((\"A-\"))))\n        {\n            return BloodBank[testingcentre].aneg;\n        }\n        else if(keccak256(abi.encodePacked((blreq))) == keccak256(abi.encodePacked((\"B+\"))))\n        {\n            return BloodBank[testingcentre].bpos;\n        }\n        else if(keccak256(abi.encodePacked((blreq))) == keccak256(abi.encodePacked((\"B-\"))))\n        {\n            return BloodBank[testingcentre].bneg;\n        }\n        else if(keccak256(abi.encodePacked((blreq))) == keccak256(abi.encodePacked((\"AB+\"))))\n        {\n            return BloodBank[testingcentre].abpos;\n        }\n        else if(keccak256(abi.encodePacked((blreq))) == keccak256(abi.encodePacked((\"AB-\"))))\n        {\n            return BloodBank[testingcentre].abneg;\n        }\n        else if(keccak256(abi.encodePacked((blreq))) == keccak256(abi.encodePacked((\"O+\"))))\n        {\n            return BloodBank[testingcentre].opos;   \n        }\n        else if(keccak256(abi.encodePacked((blreq))) == keccak256(abi.encodePacked((\"O-\"))))\n        {\n            return BloodBank[testingcentre].oneg;\n        }\n}\n\n// To get receivers blood group.\nfunction get_recvBlood(address recv) public view returns(string memory)\n{\n    return Receivers[recv].bloodgrp;\n}\n//2. Receive blood and decrement it from blood bank\nfunction rec(address recv,uint value) public \n{\n        if(receivermembership[msg.sender]==1)\n        {\n            string memory bloodcall=Receivers[recv].bloodgrp;\n            if(keccak256(abi.encodePacked((bloodcall))) == keccak256(abi.encodePacked((\"A+\"))))\n            {\n                BloodBank[testingcentre].apos-=value;\n            }\n            else if(keccak256(abi.encodePacked((bloodcall))) == keccak256(abi.encodePacked((\"A-\"))))\n            {\n                BloodBank[testingcentre].aneg-=value;\n            }\n            else if(keccak256(abi.encodePacked((bloodcall))) == keccak256(abi.encodePacked((\"B+\"))))\n            {\n                BloodBank[testingcentre].bpos-=value;\n            }\n            else if(keccak256(abi.encodePacked((bloodcall))) == keccak256(abi.encodePacked((\"B-\"))))\n            {\n                BloodBank[testingcentre].bneg-=value;\n            }\n            else if(keccak256(abi.encodePacked((bloodcall))) == keccak256(abi.encodePacked((\"AB+\"))))\n            {\n                BloodBank[testingcentre].abpos-=value;\n            }\n            else if(keccak256(abi.encodePacked((bloodcall))) == keccak256(abi.encodePacked((\"AB-\"))))\n            {\n                BloodBank[testingcentre].abneg-=value;\n            }\n            else if(keccak256(abi.encodePacked((bloodcall))) == keccak256(abi.encodePacked((\"O+\"))))\n            {\n                BloodBank[testingcentre].opos-=value;   \n            }\n            else if(keccak256(abi.encodePacked((bloodcall))) == keccak256(abi.encodePacked((\"O-\"))))\n            {\n                BloodBank[testingcentre].oneg-=value;\n            }\n        }\n        else\n        {\n            revert(\"You dont have membership\");\n        }   \n}\n\n}\n",
  "sourcePath": "/Users/abhinavbadinehal/Desktop/Blockchain/blood-contract/contracts/Blood.sol",
  "compiler": {
    "name": "solc",
    "version": "0.8.17+commit.8df45f5f.Emscripten.clang"
  },
  "schemaVersion": "3.4.10",
  "updatedAt": "2022-11-15T02:28:14.981Z",
  "networkType": "ethereum",
  "devdoc": {
    "kind": "dev",
    "methods": {},
    "version": 1
  },
  "userdoc": {
    "kind": "user",
    "methods": {},
    "version": 1
  }
}